{
  "transactions": [
    {
      "hash": "0xcb71350c5b093527d5eac67c30e83e4dc6a94d776573c6e87ffdb3c86447acaf",
      "transactionType": "CALL",
      "contractName": null,
      "contractAddress": "0xed4db6ea97b7f9a877f529db65976702083ca64b",
      "function": "setRouterAllowed(address,bool)",
      "arguments": [
        "0xE592427A0AEce92De3Edee1F18E0157C05861564",
        "true"
      ],
      "transaction": {
        "from": "0xac6a79de1b7aa655a6323a470c66f0a6c657fa5c",
        "to": "0xed4db6ea97b7f9a877f529db65976702083ca64b",
        "gas": "0x95b7",
        "value": "0x0",
        "input": "0x6cc88edb000000000000000000000000e592427a0aece92de3edee1f18e0157c058615640000000000000000000000000000000000000000000000000000000000000001",
        "nonce": "0x1",
        "chainId": "0xa"
      },
      "additionalContracts": [],
      "isFixedGasLimit": false
    },
    {
      "hash": "0xe4a4c6372be9e70528e7cbf38191c28b42c2bac5a7f4a887ec2d1f1ce4074276",
      "transactionType": "CALL",
      "contractName": null,
      "contractAddress": "0xed4db6ea97b7f9a877f529db65976702083ca64b",
      "function": "setRouterAllowed(address,bool)",
      "arguments": [
        "0xa062aE8A9c5e11aaA026fc2670B0D65cCc8B2858",
        "true"
      ],
      "transaction": {
        "from": "0xac6a79de1b7aa655a6323a470c66f0a6c657fa5c",
        "to": "0xed4db6ea97b7f9a877f529db65976702083ca64b",
        "gas": "0x11036",
        "value": "0x0",
        "input": "0x6cc88edb000000000000000000000000a062ae8a9c5e11aaa026fc2670b0d65ccc8b28580000000000000000000000000000000000000000000000000000000000000001",
        "nonce": "0x2",
        "chainId": "0xa"
      },
      "additionalContracts": [],
      "isFixedGasLimit": false
    }
  ],
  "receipts": [
    {
      "status": "0x1",
      "cumulativeGasUsed": "0xb82e83",
      "logs": [
        {
          "address": "0xed4db6ea97b7f9a877f529db65976702083ca64b",
          "topics": [
            "0x5ae067a93e2af6193017728cb7e9ef5af1d750a5beb7b16a05b54d56f6f355e3"
          ],
          "data": "0x000000000000000000000000e592427a0aece92de3edee1f18e0157c058615640000000000000000000000000000000000000000000000000000000000000001",
          "blockHash": "0xb9d34db9c6034af58da386105363d52ad8460c95300573cd3fcc5b2107d6c688",
          "blockNumber": "0x8707c39",
          "blockTimestamp": "0x68d4d22b",
          "transactionHash": "0xcb71350c5b093527d5eac67c30e83e4dc6a94d776573c6e87ffdb3c86447acaf",
          "transactionIndex": "0x29",
          "logIndex": "0xda",
          "removed": false
        }
      ],
      "logsBloom": "0x00000000000000000000000000000002000000000000000000000000000000000000000000000000000000000000000001000000000000000000000000000000000000000000000000000000000000000000000000000000000000000000000000000000000000000000000000000000000000000000000000000000000000000000000000000000000000800000000000000000000020000000000000000000000000000000000000000000000000000000004000000000000000000000000000000000000000000000000000000000000000000002000000000000000000000000000000000000000000000000000000000000000000000000000000000000",
      "type": "0x2",
      "transactionHash": "0xcb71350c5b093527d5eac67c30e83e4dc6a94d776573c6e87ffdb3c86447acaf",
      "transactionIndex": "0x29",
      "blockHash": "0xb9d34db9c6034af58da386105363d52ad8460c95300573cd3fcc5b2107d6c688",
      "blockNumber": "0x8707c39",
      "gasUsed": "0x6c65",
      "effectiveGasPrice": "0x107e",
      "from": "0xac6a79de1b7aa655a6323a470c66f0a6c657fa5c",
      "to": "0xed4db6ea97b7f9a877f529db65976702083ca64b",
      "contractAddress": null,
      "l1BaseFeeScalar": "0x146b",
      "l1BlobBaseFee": "0x1",
      "l1BlobBaseFeeScalar": "0xf79c5",
      "l1Fee": "0xefa71190",
      "l1GasPrice": "0x1ca7d61f",
      "l1GasUsed": "0x640"
    },
    {
      "status": "0x1",
      "cumulativeGasUsed": "0xb8e8a4",
      "logs": [
        {
          "address": "0xed4db6ea97b7f9a877f529db65976702083ca64b",
          "topics": [
            "0x5ae067a93e2af6193017728cb7e9ef5af1d750a5beb7b16a05b54d56f6f355e3"
          ],
          "data": "0x000000000000000000000000a062ae8a9c5e11aaa026fc2670b0d65ccc8b28580000000000000000000000000000000000000000000000000000000000000001",
          "blockHash": "0xb9d34db9c6034af58da386105363d52ad8460c95300573cd3fcc5b2107d6c688",
          "blockNumber": "0x8707c39",
          "blockTimestamp": "0x68d4d22b",
          "transactionHash": "0xe4a4c6372be9e70528e7cbf38191c28b42c2bac5a7f4a887ec2d1f1ce4074276",
          "transactionIndex": "0x2a",
          "logIndex": "0xdb",
          "removed": false
        }
      ],
      "logsBloom": "0x00000000000000000000000000000002000000000000000000000000000000000000000000000000000000000000000001000000000000000000000000000000000000000000000000000000000000000000000000000000000000000000000000000000000000000000000000000000000000000000000000000000000000000000000000000000000000800000000000000000000020000000000000000000000000000000000000000000000000000000004000000000000000000000000000000000000000000000000000000000000000000002000000000000000000000000000000000000000000000000000000000000000000000000000000000000",
      "type": "0x2",
      "transactionHash": "0xe4a4c6372be9e70528e7cbf38191c28b42c2bac5a7f4a887ec2d1f1ce4074276",
      "transactionIndex": "0x2a",
      "blockHash": "0xb9d34db9c6034af58da386105363d52ad8460c95300573cd3fcc5b2107d6c688",
      "blockNumber": "0x8707c39",
      "gasUsed": "0xba21",
      "effectiveGasPrice": "0x107e",
      "from": "0xac6a79de1b7aa655a6323a470c66f0a6c657fa5c",
      "to": "0xed4db6ea97b7f9a877f529db65976702083ca64b",
      "contractAddress": null,
      "l1BaseFeeScalar": "0x146b",
      "l1BlobBaseFee": "0x1",
      "l1BlobBaseFeeScalar": "0xf79c5",
      "l1Fee": "0xefa71190",
      "l1GasPrice": "0x1ca7d61f",
      "l1GasUsed": "0x640"
    }
  ],
  "libraries": [],
  "pending": [],
  "returns": {},
  "timestamp": 1758777900315,
  "chain": 10,
  "commit": null
}