{
  "transactions": [
    {
      "hash": "0x65ad9f2d5f84e698128363c18cc86eb2a47bc71c6f5ab5352094aa32f66f1d85",
      "transactionType": "CALL",
      "contractName": null,
      "contractAddress": "0x727bb7c8c0f1fc150f6d23df197e639af4506d91",
      "function": "setRouterAllowed(address,bool)",
      "arguments": [
        "0xE592427A0AEce92De3Edee1F18E0157C05861564",
        "true"
      ],
      "transaction": {
        "from": "0xac6a79de1b7aa655a6323a470c66f0a6c657fa5c",
        "to": "0x727bb7c8c0f1fc150f6d23df197e639af4506d91",
        "gas": "0x9ae2",
        "value": "0x0",
        "input": "0x6cc88edb000000000000000000000000e592427a0aece92de3edee1f18e0157c058615640000000000000000000000000000000000000000000000000000000000000001",
        "nonce": "0x3",
        "chainId": "0xa4b1"
      },
      "additionalContracts": [],
      "isFixedGasLimit": false
    },
    {
      "hash": "0x4860feaa3aecfe6f255132e4dd5797be3b0b15bbaa034d62f8a3074754701cf3",
      "transactionType": "CALL",
      "contractName": null,
      "contractAddress": "0x727bb7c8c0f1fc150f6d23df197e639af4506d91",
      "function": "setRouterAllowed(address,bool)",
      "arguments": [
        "0xc873fEcbd354f5A56E00E710B90EF4201db2448d",
        "true"
      ],
      "transaction": {
        "from": "0xac6a79de1b7aa655a6323a470c66f0a6c657fa5c",
        "to": "0x727bb7c8c0f1fc150f6d23df197e639af4506d91",
        "gas": "0xfc85",
        "value": "0x0",
        "input": "0x6cc88edb000000000000000000000000c873fecbd354f5a56e00e710b90ef4201db2448d0000000000000000000000000000000000000000000000000000000000000001",
        "nonce": "0x4",
        "chainId": "0xa4b1"
      },
      "additionalContracts": [],
      "isFixedGasLimit": false
    }
  ],
  "receipts": [
    {
      "status": "0x1",
      "cumulativeGasUsed": "0xc889a",
      "logs": [
        {
          "address": "0x727bb7c8c0f1fc150f6d23df197e639af4506d91",
          "topics": [
            "0x5ae067a93e2af6193017728cb7e9ef5af1d750a5beb7b16a05b54d56f6f355e3"
          ],
          "data": "0x000000000000000000000000e592427a0aece92de3edee1f18e0157c058615640000000000000000000000000000000000000000000000000000000000000001",
          "blockHash": "0xfded04f9ed577f36771b85ffc0374593dfe370ec3dc20796b2e62b8d4853f02d",
          "blockNumber": "0x16d07aca",
          "transactionHash": "0x65ad9f2d5f84e698128363c18cc86eb2a47bc71c6f5ab5352094aa32f66f1d85",
          "transactionIndex": "0x12",
          "logIndex": "0x2",
          "removed": false
        }
      ],
      "logsBloom": "0x0000000000000000000000000000000a000000000000000000000000000000000000000000000000000000000000000000000000000000000000000000000000000000000000000000000000000000000000000000000000000000000000000000000000400000000000000000000000000000000000000000000000000000000000000000000000000000800000000000000000000000000000000000000000000000000000000000000000000000000000000000000000000000000000000000000000000000000000000000000000000000000002000000000000000000000000001000000000000000000000000000000000000000000000000000000000",
      "type": "0x2",
      "transactionHash": "0x65ad9f2d5f84e698128363c18cc86eb2a47bc71c6f5ab5352094aa32f66f1d85",
      "transactionIndex": "0x12",
      "blockHash": "0xfded04f9ed577f36771b85ffc0374593dfe370ec3dc20796b2e62b8d4853f02d",
      "blockNumber": "0x16d07aca",
      "gasUsed": "0x7105",
      "effectiveGasPrice": "0x176c568",
      "from": "0xac6a79de1b7aa655a6323a470c66f0a6c657fa5c",
      "to": "0x727bb7c8c0f1fc150f6d23df197e639af4506d91",
      "contractAddress": null,
      "gasUsedForL1": "0x4a0",
      "l1BlockNumber": "0x165a279",
      "timeboosted": false
    },
    {
      "status": "0x1",
      "cumulativeGasUsed": "0x401808",
      "logs": [
        {
          "address": "0x727bb7c8c0f1fc150f6d23df197e639af4506d91",
          "topics": [
            "0x5ae067a93e2af6193017728cb7e9ef5af1d750a5beb7b16a05b54d56f6f355e3"
          ],
          "data": "0x000000000000000000000000c873fecbd354f5a56e00e710b90ef4201db2448d0000000000000000000000000000000000000000000000000000000000000001",
          "blockHash": "0x9be66c553747db6dfd5121a9baa056d18aedc3e627d1c09acd7f9c9547db724c",
          "blockNumber": "0x16d07acd",
          "transactionHash": "0x4860feaa3aecfe6f255132e4dd5797be3b0b15bbaa034d62f8a3074754701cf3",
          "transactionIndex": "0x10",
          "logIndex": "0x29",
          "removed": false
        }
      ],
      "logsBloom": "0x0000000000000000000000000000000a000000000000000000000000000000000000000000000000000000000000000000000000000000000000000000000000000000000000000000000000000000000000000000000000000000000000000000000000400000000000000000000000000000000000000000000000000000000000000000000000000000800000000000000000000000000000000000000000000000000000000000000000000000000000000000000000000000000000000000000000000000000000000000000000000000000002000000000000000000000000001000000000000000000000000000000000000000000000000000000000",
      "type": "0x2",
      "transactionHash": "0x4860feaa3aecfe6f255132e4dd5797be3b0b15bbaa034d62f8a3074754701cf3",
      "transactionIndex": "0x10",
      "blockHash": "0x9be66c553747db6dfd5121a9baa056d18aedc3e627d1c09acd7f9c9547db724c",
      "blockNumber": "0x16d07acd",
      "gasUsed": "0xbeb7",
      "effectiveGasPrice": "0x1762540",
      "from": "0xac6a79de1b7aa655a6323a470c66f0a6c657fa5c",
      "to": "0x727bb7c8c0f1fc150f6d23df197e639af4506d91",
      "contractAddress": null,
      "gasUsedForL1": "0x4a2",
      "l1BlockNumber": "0x165a279",
      "timeboosted": false
    }
  ],
  "libraries": [],
  "pending": [],
  "returns": {},
  "timestamp": 1758777869335,
  "chain": 42161,
  "commit": null
}